:020000040000FA
:040000008A01052844
:0800080016297F20861406145E
:100010004328563009216F300921733009212030DF
:100020000921493009216E300921693009217430D4
:10003000092169300921613009216C3009216530BD
:1000400009217330092120300921733009216F30D3
:1000500009216E300921743009213A3009212030FC
:1000600009210330A8000030A700E9202208092157
:10007000A70AE920220809213C285030A900FD20C8
:10008000A90B3F2808000730A800F030A7004E3029
:10009000A500CF20A70A6F30A500CF20A70A89307E
:1000A000A500CF20A70A6C30A500CF20A70A2030DA
:1000B000A500CF205A280730A800F030A700E9207B
:1000C00022080921A70AE92022080921A70AE92014
:1000D00022080921A70AE92022080921A70AE92004
:1000E0002208092172280330A8000030A7004430FC
:1000F000A500CF20A70A4330A500CF207E280313F8
:1001000083168B139B0178308F00FF308500E4301D
:10011000860083120D21080086118615000000005C
:1001200000000000861186140614861006100800D0
:1001300086100610061486140800A1018316861482
:1001400083120614FD208618A10A06108316861055
:10015000831208002418AE288610AF2886140614CF
:10016000FD200610FD200800A0010830A6009D20FB
:100170000310A00D2108A007A60BB7282414AA205D
:10018000FD2008000830A600A401A30D0318C9280B
:10019000CA282414AA20A60BC4289D2008008C205D
:1001A000A030A300C2202808A300C2202708A30073
:1001B000C2202508A300C22098205030A9000A3090
:1001C000AA00FD20A90BE1285030A900AA0BE128C4
:1001D00008008C20A030A300C2202808A300C22061
:1001E0002708A300C2208C20A130A300C220B42085
:1001F0002008A2009820FD20080000000000000058
:1002000000000000000008008C1E04291A08AB0042
:1002100008000C1E092999000800903098008316E8
:0E022000243098001A3099008312080009005B
:02400E00703F01
:02401000FC3F73
:00000001FF
