:020000040000FA
:040000008A01052844
:0800080005296E208614061480
:100010005630F8206F30F8207330F8202030F82068
:100020004930F8206E30F8206930F8207430F8201C
:100030006930F8206130F8206C30F8206530F82005
:100040007330F8202030F8207330F8206F30F8201B
:100050006E30F8207430F8203A30F8202030F82044
:100060000330A8000030A700D8202208F820A70AF3
:10007000D8202208F8203B285030A900EC20A90BFA
:100080003E2808000730A800F030A7005730A50030
:10009000BE20A70A6F30A500BE20A70A7730A500B2
:1000A000BE2051280730A800F030A700D820220831
:1000B000F820A70AD8202208F820A70AD82022086A
:1000C000F82061280330A8000030A7004430A500C4
:1000D000BE20A70A4330A500BE206D280313831657
:1000E0008B139B0178308F00FF308500E430860051
:1000F0008312FC2008008611861500000000000015
:10010000000086118614061486100610080086105A
:100110000610061486140800A101831686148312A3
:100120000614EC208618A10A061083168610831286
:10013000080024189D2886109E2886140614EC209A
:100140000610EC200800A0010830A6008C20031047
:10015000A00D2108A007A60BA62824149920EC20A6
:1001600008000830A600A401A30D0318B828B92878
:1001700024149920A60BB3288C2008007B20A030E3
:10018000A300B1202808A300B1202708A300B120B4
:100190002508A300B12087205030A9000A30AA000A
:1001A000EC20A90BD0285030A900AA0BD0280800B9
:1001B0007B20A030A300B1202808A300B12027088D
:1001C000A300B1207B20A130A300B120A3202008F0
:1001D000A2008720EC2008000000000000000000C2
:1001E0000000000008008C1EF3281A08AB0008006D
:1001F0000C1EF828990008009030980083162430CF
:0C02000098001A309900831208000900D1
:02400E00703F01
:02401000FC3F73
:00000001FF
